{
  "contractName": "PuzaNCoin",
  "abi": [
    {
      "constant": true,
      "inputs": [
        {
          "name": "interfaceId",
          "type": "bytes4"
        }
      ],
      "name": "supportsInterface",
      "outputs": [
        {
          "name": "",
          "type": "bool"
        }
      ],
      "payable": false,
      "stateMutability": "view",
      "type": "function"
    },
    {
      "constant": true,
      "inputs": [],
      "name": "name",
      "outputs": [
        {
          "name": "",
          "type": "string"
        }
      ],
      "payable": false,
      "stateMutability": "view",
      "type": "function"
    },
    {
      "constant": true,
      "inputs": [
        {
          "name": "tokenId",
          "type": "uint256"
        }
      ],
      "name": "getApproved",
      "outputs": [
        {
          "name": "",
          "type": "address"
        }
      ],
      "payable": false,
      "stateMutability": "view",
      "type": "function"
    },
    {
      "constant": false,
      "inputs": [
        {
          "name": "to",
          "type": "address"
        },
        {
          "name": "tokenId",
          "type": "uint256"
        }
      ],
      "name": "approve",
      "outputs": [],
      "payable": false,
      "stateMutability": "nonpayable",
      "type": "function"
    },
    {
      "constant": false,
      "inputs": [
        {
          "name": "from",
          "type": "address"
        },
        {
          "name": "to",
          "type": "address"
        },
        {
          "name": "tokenId",
          "type": "uint256"
        }
      ],
      "name": "transferFrom",
      "outputs": [],
      "payable": false,
      "stateMutability": "nonpayable",
      "type": "function"
    },
    {
      "constant": true,
      "inputs": [],
      "name": "Id",
      "outputs": [
        {
          "name": "",
          "type": "uint32"
        }
      ],
      "payable": false,
      "stateMutability": "view",
      "type": "function"
    },
    {
      "constant": false,
      "inputs": [
        {
          "name": "from",
          "type": "address"
        },
        {
          "name": "to",
          "type": "address"
        },
        {
          "name": "tokenId",
          "type": "uint256"
        }
      ],
      "name": "safeTransferFrom",
      "outputs": [],
      "payable": false,
      "stateMutability": "nonpayable",
      "type": "function"
    },
    {
      "constant": true,
      "inputs": [
        {
          "name": "",
          "type": "address"
        }
      ],
      "name": "MDTrack",
      "outputs": [
        {
          "name": "",
          "type": "uint32"
        }
      ],
      "payable": false,
      "stateMutability": "view",
      "type": "function"
    },
    {
      "constant": true,
      "inputs": [
        {
          "name": "tokenId",
          "type": "uint256"
        }
      ],
      "name": "ownerOf",
      "outputs": [
        {
          "name": "",
          "type": "address"
        }
      ],
      "payable": false,
      "stateMutability": "view",
      "type": "function"
    },
    {
      "constant": true,
      "inputs": [],
      "name": "baseURI",
      "outputs": [
        {
          "name": "",
          "type": "string"
        }
      ],
      "payable": false,
      "stateMutability": "view",
      "type": "function"
    },
    {
      "constant": true,
      "inputs": [
        {
          "name": "owner",
          "type": "address"
        }
      ],
      "name": "balanceOf",
      "outputs": [
        {
          "name": "",
          "type": "uint256"
        }
      ],
      "payable": false,
      "stateMutability": "view",
      "type": "function"
    },
    {
      "constant": true,
      "inputs": [],
      "name": "symbol",
      "outputs": [
        {
          "name": "",
          "type": "string"
        }
      ],
      "payable": false,
      "stateMutability": "view",
      "type": "function"
    },
    {
      "constant": false,
      "inputs": [
        {
          "name": "to",
          "type": "address"
        },
        {
          "name": "approved",
          "type": "bool"
        }
      ],
      "name": "setApprovalForAll",
      "outputs": [],
      "payable": false,
      "stateMutability": "nonpayable",
      "type": "function"
    },
    {
      "constant": false,
      "inputs": [
        {
          "name": "from",
          "type": "address"
        },
        {
          "name": "to",
          "type": "address"
        },
        {
          "name": "tokenId",
          "type": "uint256"
        },
        {
          "name": "_data",
          "type": "bytes"
        }
      ],
      "name": "safeTransferFrom",
      "outputs": [],
      "payable": false,
      "stateMutability": "nonpayable",
      "type": "function"
    },
    {
      "constant": true,
      "inputs": [
        {
          "name": "tokenId",
          "type": "uint256"
        }
      ],
      "name": "tokenURI",
      "outputs": [
        {
          "name": "",
          "type": "string"
        }
      ],
      "payable": false,
      "stateMutability": "view",
      "type": "function"
    },
    {
      "constant": true,
      "inputs": [
        {
          "name": "owner",
          "type": "address"
        },
        {
          "name": "operator",
          "type": "address"
        }
      ],
      "name": "isApprovedForAll",
      "outputs": [
        {
          "name": "",
          "type": "bool"
        }
      ],
      "payable": false,
      "stateMutability": "view",
      "type": "function"
    },
    {
      "inputs": [],
      "payable": true,
      "stateMutability": "payable",
      "type": "constructor"
    },
    {
      "anonymous": false,
      "inputs": [
        {
          "indexed": true,
          "name": "from",
          "type": "address"
        },
        {
          "indexed": true,
          "name": "to",
          "type": "address"
        },
        {
          "indexed": true,
          "name": "tokenId",
          "type": "uint256"
        }
      ],
      "name": "Transfer",
      "type": "event"
    },
    {
      "anonymous": false,
      "inputs": [
        {
          "indexed": true,
          "name": "owner",
          "type": "address"
        },
        {
          "indexed": true,
          "name": "approved",
          "type": "address"
        },
        {
          "indexed": true,
          "name": "tokenId",
          "type": "uint256"
        }
      ],
      "name": "Approval",
      "type": "event"
    },
    {
      "anonymous": false,
      "inputs": [
        {
          "indexed": true,
          "name": "owner",
          "type": "address"
        },
        {
          "indexed": true,
          "name": "operator",
          "type": "address"
        },
        {
          "indexed": false,
          "name": "approved",
          "type": "bool"
        }
      ],
      "name": "ApprovalForAll",
      "type": "event"
    },
    {
      "constant": false,
      "inputs": [
        {
          "name": "receiver",
          "type": "address"
        },
        {
          "name": "metadata",
          "type": "string"
        }
      ],
      "name": "createNFT_",
      "outputs": [
        {
          "name": "",
          "type": "uint32"
        }
      ],
      "payable": false,
      "stateMutability": "nonpayable",
      "type": "function"
    },
    {
      "constant": false,
      "inputs": [
        {
          "name": "sender",
          "type": "address"
        },
        {
          "name": "receiver",
          "type": "address"
        },
        {
          "name": "transId",
          "type": "uint32"
        },
        {
          "name": "metadata",
          "type": "string"
        }
      ],
      "name": "transferNFT_",
      "outputs": [],
      "payable": false,
      "stateMutability": "nonpayable",
      "type": "function"
    }
  ],
  "bytecode": "0x60806040526040518060400160405280600981526020017f50757a614e436f696e00000000000000000000000000000000000000000000008152506040518060400160405280600581526020017f50555a414e000000000000000000000000000000000000000000000000000000815250620000886301ffc9a760e01b6200011460201b60201c565b620000a06380ac58cd60e01b6200011460201b60201c565b8160059080519060200190620000b89291906200021f565b508060069080519060200190620000d19291906200021f565b50620000ea635b5e139f60e01b6200011460201b60201c565b50506000600960006101000a81548163ffffffff021916908363ffffffff160217905550620002ce565b63ffffffff60e01b817bffffffffffffffffffffffffffffffffffffffffffffffffffffffff191614151515620001b3576040517f08c379a000000000000000000000000000000000000000000000000000000000815260040180806020018281038252601c8152602001807f4552433136353a20696e76616c696420696e746572666163652069640000000081525060200191505060405180910390fd5b6001600080837bffffffffffffffffffffffffffffffffffffffffffffffffffffffff19167bffffffffffffffffffffffffffffffffffffffffffffffffffffffff1916815260200190815260200160002060006101000a81548160ff02191690831515021790555050565b828054600181600116156101000203166002900490600052602060002090601f016020900481019282601f106200026257805160ff191683800117855562000293565b8280016001018555821562000293579182015b828111156200029257825182559160200191906001019062000275565b5b509050620002a29190620002a6565b5090565b620002cb91905b80821115620002c7576000816000905550600101620002ad565b5090565b90565b61280e80620002de6000396000f3fe608060405234801561001057600080fd5b50600436106101365760003560e01c806347a296fd116100b257806395d89b4111610081578063b88d4fde11610066578063b88d4fde146107e7578063c87b56dd146108ec578063e985e9c51461099357610136565b806395d89b4114610714578063a22cb4651461079757610136565b806347a296fd146105025780636352211e146105cb5780636c0360eb1461063957806370a08231146106bc57610136565b806323b872dd1161010957806339a090c9116100ee57806339a090c91461040657806342842e0e14610430578063461623ff1461049e57610136565b806323b872dd146102df57806327e19eed1461034d57610136565b806301ffc9a71461013b57806306fdde03146101a0578063081812fc14610223578063095ea7b314610291575b600080fd5b6101866004803603602081101561015157600080fd5b8101908080357bffffffffffffffffffffffffffffffffffffffffffffffffffffffff19169060200190929190505050610a0f565b604051808215151515815260200191505060405180910390f35b6101a8610a76565b6040518080602001828103825283818151815260200191508051906020019080838360005b838110156101e85780820151818401526020810190506101cd565b50505050905090810190601f1680156102155780820380516001836020036101000a031916815260200191505b509250505060405180910390f35b61024f6004803603602081101561023957600080fd5b8101908080359060200190929190505050610b18565b604051808273ffffffffffffffffffffffffffffffffffffffff1673ffffffffffffffffffffffffffffffffffffffff16815260200191505060405180910390f35b6102dd600480360360408110156102a757600080fd5b81019080803573ffffffffffffffffffffffffffffffffffffffff16906020019092919080359060200190929190505050610bb5565b005b61034b600480360360608110156102f557600080fd5b81019080803573ffffffffffffffffffffffffffffffffffffffff169060200190929190803573ffffffffffffffffffffffffffffffffffffffff16906020019092919080359060200190929190505050610da0565b005b6103e46004803603604081101561036357600080fd5b81019080803573ffffffffffffffffffffffffffffffffffffffff169060200190929190803590602001906401000000008111156103a057600080fd5b8201836020820111156103b257600080fd5b803590602001918460018302840111640100000000831117156103d457600080fd5b9091929391929390505050610e18565b604051808263ffffffff1663ffffffff16815260200191505060405180910390f35b61040e610f69565b604051808263ffffffff1663ffffffff16815260200191505060405180910390f35b61049c6004803603606081101561044657600080fd5b81019080803573ffffffffffffffffffffffffffffffffffffffff169060200190929190803573ffffffffffffffffffffffffffffffffffffffff16906020019092919080359060200190929190505050610f7f565b005b6104e0600480360360208110156104b457600080fd5b81019080803573ffffffffffffffffffffffffffffffffffffffff169060200190929190505050610f9f565b604051808263ffffffff1663ffffffff16815260200191505060405180910390f35b6105c96004803603608081101561051857600080fd5b81019080803573ffffffffffffffffffffffffffffffffffffffff169060200190929190803573ffffffffffffffffffffffffffffffffffffffff169060200190929190803563ffffffff1690602001909291908035906020019064010000000081111561058557600080fd5b82018360208201111561059757600080fd5b803590602001918460018302840111640100000000831117156105b957600080fd5b9091929391929390505050610fc2565b005b6105f7600480360360208110156105e157600080fd5b81019080803590602001909291905050506110f0565b604051808273ffffffffffffffffffffffffffffffffffffffff1673ffffffffffffffffffffffffffffffffffffffff16815260200191505060405180910390f35b6106416111ba565b6040518080602001828103825283818151815260200191508051906020019080838360005b83811015610681578082015181840152602081019050610666565b50505050905090810190601f1680156106ae5780820380516001836020036101000a031916815260200191505b509250505060405180910390f35b6106fe600480360360208110156106d257600080fd5b81019080803573ffffffffffffffffffffffffffffffffffffffff16906020019092919050505061125c565b6040518082815260200191505060405180910390f35b61071c611333565b6040518080602001828103825283818151815260200191508051906020019080838360005b8381101561075c578082015181840152602081019050610741565b50505050905090810190601f1680156107895780820380516001836020036101000a031916815260200191505b509250505060405180910390f35b6107e5600480360360408110156107ad57600080fd5b81019080803573ffffffffffffffffffffffffffffffffffffffff1690602001909291908035151590602001909291905050506113d5565b005b6108ea600480360360808110156107fd57600080fd5b81019080803573ffffffffffffffffffffffffffffffffffffffff169060200190929190803573ffffffffffffffffffffffffffffffffffffffff169060200190929190803590602001909291908035906020019064010000000081111561086457600080fd5b82018360208201111561087657600080fd5b8035906020019184600183028401116401000000008311171561089857600080fd5b91908080601f016020809104026020016040519081016040528093929190818152602001838380828437600081840152601f19601f82011690508083019250505050505050919291929050505061158f565b005b6109186004803603602081101561090257600080fd5b8101908080359060200190929190505050611609565b6040518080602001828103825283818151815260200191508051906020019080838360005b8381101561095857808201518184015260208101905061093d565b50505050905090810190601f1680156109855780820380516001836020036101000a031916815260200191505b509250505060405180910390f35b6109f5600480360360408110156109a957600080fd5b81019080803573ffffffffffffffffffffffffffffffffffffffff169060200190929190803573ffffffffffffffffffffffffffffffffffffffff16906020019092919050505061180f565b604051808215151515815260200191505060405180910390f35b6000806000837bffffffffffffffffffffffffffffffffffffffffffffffffffffffff19167bffffffffffffffffffffffffffffffffffffffffffffffffffffffff1916815260200190815260200160002060009054906101000a900460ff169050919050565b606060058054600181600116156101000203166002900480601f016020809104026020016040519081016040528092919081815260200182805460018160011615610100020316600290048015610b0e5780601f10610ae357610100808354040283529160200191610b0e565b820191906000526020600020905b815481529060010190602001808311610af157829003601f168201915b5050505050905090565b6000610b23826118a3565b1515610b7a576040517f08c379a000000000000000000000000000000000000000000000000000000000815260040180806020018281038252602c8152602001806126e1602c913960400191505060405180910390fd5b6002600083815260200190815260200160002060009054906101000a900473ffffffffffffffffffffffffffffffffffffffff169050919050565b6000610bc0826110f0565b90508073ffffffffffffffffffffffffffffffffffffffff168373ffffffffffffffffffffffffffffffffffffffff1614151515610c49576040517f08c379a00000000000000000000000000000000000000000000000000000000081526004018080602001828103825260218152602001806127916021913960400191505060405180910390fd5b8073ffffffffffffffffffffffffffffffffffffffff16610c68611915565b73ffffffffffffffffffffffffffffffffffffffff161480610c975750610c9681610c91611915565b61180f565b5b1515610cee576040517f08c379a00000000000000000000000000000000000000000000000000000000081526004018080602001828103825260388152602001806126566038913960400191505060405180910390fd5b826002600084815260200190815260200160002060006101000a81548173ffffffffffffffffffffffffffffffffffffffff021916908373ffffffffffffffffffffffffffffffffffffffff160217905550818373ffffffffffffffffffffffffffffffffffffffff168273ffffffffffffffffffffffffffffffffffffffff167f8c5be1e5ebec7d5bd14f71427d1e84f3dd0314c0f7b2291e5b200ac8c7c3b92560405160405180910390a4505050565b610db1610dab611915565b8261191d565b1515610e08576040517f08c379a00000000000000000000000000000000000000000000000000000000081526004018080602001828103825260318152602001806127b26031913960400191505060405180910390fd5b610e13838383611a13565b505050565b60006009600081819054906101000a900463ffffffff168092919060010191906101000a81548163ffffffff021916908363ffffffff16021790555050610e7784600960009054906101000a900463ffffffff1663ffffffff16611c72565b610edd600960009054906101000a900463ffffffff1663ffffffff1684848080601f016020809104026020016040519081016040528093929190818152602001838380828437600081840152601f19601f82011690508083019250505050505050611e8e565b600960009054906101000a900463ffffffff16600a60008673ffffffffffffffffffffffffffffffffffffffff1673ffffffffffffffffffffffffffffffffffffffff16815260200190815260200160002060006101000a81548163ffffffff021916908363ffffffff160217905550600960009054906101000a900463ffffffff1690509392505050565b600960009054906101000a900463ffffffff1681565b610f9a8383836040518060200160405280600081525061158f565b505050565b600a6020528060005260406000206000915054906101000a900463ffffffff1681565b610fd385858563ffffffff16611a13565b6110278363ffffffff1683838080601f016020809104026020016040519081016040528093929190818152602001838380828437600081840152601f19601f82011690508083019250505050505050611e8e565b600a60008673ffffffffffffffffffffffffffffffffffffffff1673ffffffffffffffffffffffffffffffffffffffff16815260200190815260200160002060006101000a81549063ffffffff0219169055600960009054906101000a900463ffffffff16600a60008673ffffffffffffffffffffffffffffffffffffffff1673ffffffffffffffffffffffffffffffffffffffff16815260200190815260200160002060006101000a81548163ffffffff021916908363ffffffff1602179055505050505050565b6000806001600084815260200190815260200160002060009054906101000a900473ffffffffffffffffffffffffffffffffffffffff169050600073ffffffffffffffffffffffffffffffffffffffff168173ffffffffffffffffffffffffffffffffffffffff16141515156111b1576040517f08c379a00000000000000000000000000000000000000000000000000000000081526004018080602001828103825260298152602001806126b86029913960400191505060405180910390fd5b80915050919050565b606060078054600181600116156101000203166002900480601f0160208091040260200160405190810160405280929190818152602001828054600181600116156101000203166002900480156112525780601f1061122757610100808354040283529160200191611252565b820191906000526020600020905b81548152906001019060200180831161123557829003601f168201915b5050505050905090565b60008073ffffffffffffffffffffffffffffffffffffffff168273ffffffffffffffffffffffffffffffffffffffff16141515156112e5576040517f08c379a000000000000000000000000000000000000000000000000000000000815260040180806020018281038252602a81526020018061268e602a913960400191505060405180910390fd5b61132c600360008473ffffffffffffffffffffffffffffffffffffffff1673ffffffffffffffffffffffffffffffffffffffff168152602001908152602001600020611f1a565b9050919050565b606060068054600181600116156101000203166002900480601f0160208091040260200160405190810160405280929190818152602001828054600181600116156101000203166002900480156113cb5780601f106113a0576101008083540402835291602001916113cb565b820191906000526020600020905b8154815290600101906020018083116113ae57829003601f168201915b5050505050905090565b6113dd611915565b73ffffffffffffffffffffffffffffffffffffffff168273ffffffffffffffffffffffffffffffffffffffff1614151515611480576040517f08c379a00000000000000000000000000000000000000000000000000000000081526004018080602001828103825260198152602001807f4552433732313a20617070726f766520746f2063616c6c65720000000000000081525060200191505060405180910390fd5b806004600061148d611915565b73ffffffffffffffffffffffffffffffffffffffff1673ffffffffffffffffffffffffffffffffffffffff16815260200190815260200160002060008473ffffffffffffffffffffffffffffffffffffffff1673ffffffffffffffffffffffffffffffffffffffff16815260200190815260200160002060006101000a81548160ff0219169083151502179055508173ffffffffffffffffffffffffffffffffffffffff1661153a611915565b73ffffffffffffffffffffffffffffffffffffffff167f17307eab39ab6107e8899845ad3d59bd9653f200f220920489ca2b5937696c3183604051808215151515815260200191505060405180910390a35050565b6115a061159a611915565b8361191d565b15156115f7576040517f08c379a00000000000000000000000000000000000000000000000000000000081526004018080602001828103825260318152602001806127b26031913960400191505060405180910390fd5b61160384848484611f28565b50505050565b6060611614826118a3565b151561166b576040517f08c379a000000000000000000000000000000000000000000000000000000000815260040180806020018281038252602f815260200180612762602f913960400191505060405180910390fd5b6060600860008481526020019081526020016000208054600181600116156101000203166002900480601f0160208091040260200160405190810160405280929190818152602001828054600181600116156101000203166002900480156117145780601f106116e957610100808354040283529160200191611714565b820191906000526020600020905b8154815290600101906020018083116116f757829003601f168201915b5050505050905060008151141561173d576040518060200160405280600081525091505061180a565b600781604051602001808380546001816001161561010002031660029004801561179e5780601f1061177c57610100808354040283529182019161179e565b820191906000526020600020905b81548152906001019060200180831161178a575b505082805190602001908083835b6020831015156117d157805182526020820191506020810190506020830392506117ac565b6001836020036101000a038019825116818451168082178552505050505050905001925050506040516020818303038152906040529150505b919050565b6000600460008473ffffffffffffffffffffffffffffffffffffffff1673ffffffffffffffffffffffffffffffffffffffff16815260200190815260200160002060008373ffffffffffffffffffffffffffffffffffffffff1673ffffffffffffffffffffffffffffffffffffffff16815260200190815260200160002060009054906101000a900460ff16905092915050565b6000806001600084815260200190815260200160002060009054906101000a900473ffffffffffffffffffffffffffffffffffffffff169050600073ffffffffffffffffffffffffffffffffffffffff168173ffffffffffffffffffffffffffffffffffffffff161415915050919050565b600033905090565b6000611928826118a3565b151561197f576040517f08c379a000000000000000000000000000000000000000000000000000000000815260040180806020018281038252602c81526020018061262a602c913960400191505060405180910390fd5b600061198a836110f0565b90508073ffffffffffffffffffffffffffffffffffffffff168473ffffffffffffffffffffffffffffffffffffffff1614806119f957508373ffffffffffffffffffffffffffffffffffffffff166119e184610b18565b73ffffffffffffffffffffffffffffffffffffffff16145b80611a0a5750611a09818561180f565b5b91505092915050565b8273ffffffffffffffffffffffffffffffffffffffff16611a33826110f0565b73ffffffffffffffffffffffffffffffffffffffff16141515611aa1576040517f08c379a00000000000000000000000000000000000000000000000000000000081526004018080602001828103825260298152602001806127396029913960400191505060405180910390fd5b600073ffffffffffffffffffffffffffffffffffffffff168273ffffffffffffffffffffffffffffffffffffffff1614151515611b29576040517f08c379a00000000000000000000000000000000000000000000000000000000081526004018080602001828103825260248152602001806126066024913960400191505060405180910390fd5b611b3281611f9c565b611b79600360008573ffffffffffffffffffffffffffffffffffffffff1673ffffffffffffffffffffffffffffffffffffffff16815260200190815260200160002061205c565b611bc0600360008473ffffffffffffffffffffffffffffffffffffffff1673ffffffffffffffffffffffffffffffffffffffff16815260200190815260200160002061207f565b816001600083815260200190815260200160002060006101000a81548173ffffffffffffffffffffffffffffffffffffffff021916908373ffffffffffffffffffffffffffffffffffffffff160217905550808273ffffffffffffffffffffffffffffffffffffffff168473ffffffffffffffffffffffffffffffffffffffff167fddf252ad1be2c89b69c2b068fc378daa952ba7f163c4a11628f55a4df523b3ef60405160405180910390a4505050565b600073ffffffffffffffffffffffffffffffffffffffff168273ffffffffffffffffffffffffffffffffffffffff1614151515611d17576040517f08c379a00000000000000000000000000000000000000000000000000000000081526004018080602001828103825260208152602001807f4552433732313a206d696e7420746f20746865207a65726f206164647265737381525060200191505060405180910390fd5b611d20816118a3565b151515611d95576040517f08c379a000000000000000000000000000000000000000000000000000000000815260040180806020018281038252601c8152602001807f4552433732313a20746f6b656e20616c7265616479206d696e7465640000000081525060200191505060405180910390fd5b816001600083815260200190815260200160002060006101000a81548173ffffffffffffffffffffffffffffffffffffffff021916908373ffffffffffffffffffffffffffffffffffffffff160217905550611e2e600360008473ffffffffffffffffffffffffffffffffffffffff1673ffffffffffffffffffffffffffffffffffffffff16815260200190815260200160002061207f565b808273ffffffffffffffffffffffffffffffffffffffff16600073ffffffffffffffffffffffffffffffffffffffff167fddf252ad1be2c89b69c2b068fc378daa952ba7f163c4a11628f55a4df523b3ef60405160405180910390a45050565b611e97826118a3565b1515611eee576040517f08c379a000000000000000000000000000000000000000000000000000000000815260040180806020018281038252602c81526020018061270d602c913960400191505060405180910390fd5b80600860008481526020019081526020016000209080519060200190611f1592919061252e565b505050565b600081600001549050919050565b611f33848484611a13565b611f3f84848484612095565b1515611f96576040517f08c379a00000000000000000000000000000000000000000000000000000000081526004018080602001828103825260328152602001806125d46032913960400191505060405180910390fd5b50505050565b600073ffffffffffffffffffffffffffffffffffffffff166002600083815260200190815260200160002060009054906101000a900473ffffffffffffffffffffffffffffffffffffffff1673ffffffffffffffffffffffffffffffffffffffff161415156120595760006002600083815260200190815260200160002060006101000a81548173ffffffffffffffffffffffffffffffffffffffff021916908373ffffffffffffffffffffffffffffffffffffffff1602179055505b50565b612074600182600001546123d790919063ffffffff16565b816000018190555050565b6001816000016000828254019250508190555050565b60006120b68473ffffffffffffffffffffffffffffffffffffffff16612421565b15156120c557600190506123cf565b600060608573ffffffffffffffffffffffffffffffffffffffff168673ffffffffffffffffffffffffffffffffffffffff1663150b7a02905060e01b612109611915565b898888604051602401808573ffffffffffffffffffffffffffffffffffffffff1673ffffffffffffffffffffffffffffffffffffffff1681526020018473ffffffffffffffffffffffffffffffffffffffff1673ffffffffffffffffffffffffffffffffffffffff16815260200183815260200180602001828103825283818151815260200191508051906020019080838360005b838110156121b957808201518184015260208101905061219e565b50505050905090810190601f1680156121e65780820380516001836020036101000a031916815260200191505b5095505050505050604051602081830303815290604052907bffffffffffffffffffffffffffffffffffffffffffffffffffffffff19166020820180517bffffffffffffffffffffffffffffffffffffffffffffffffffffffff83818316178352505050506040518082805190602001908083835b602083101515612280578051825260208201915060208101905060208303925061225b565b6001836020036101000a0380198251168184511680821785525050505050509050019150506000604051808303816000865af19150503d80600081146122e2576040519150601f19603f3d011682016040523d82523d6000602084013e6122e7565b606091505b5091509150811515612357576000815111156123065780518082602001fd5b6040517f08c379a00000000000000000000000000000000000000000000000000000000081526004018080602001828103825260328152602001806125d46032913960400191505060405180910390fd5b600081806020019051602081101561236e57600080fd5b8101908080519060200190929190505050905063150b7a0260e01b7bffffffffffffffffffffffffffffffffffffffffffffffffffffffff1916817bffffffffffffffffffffffffffffffffffffffffffffffffffffffff19161493505050505b949350505050565b600061241983836040518060400160405280601e81526020017f536166654d6174683a207375627472616374696f6e206f766572666c6f77000081525061246c565b905092915050565b60008060007fc5d2460186f7233c927e7db2dcc703c0e500b653ca82273b7bfad8045d85a47060001b9050833f915080821415801561246357506000801b8214155b92505050919050565b6000838311158290151561251b576040517f08c379a00000000000000000000000000000000000000000000000000000000081526004018080602001828103825283818151815260200191508051906020019080838360005b838110156124e05780820151818401526020810190506124c5565b50505050905090810190601f16801561250d5780820380516001836020036101000a031916815260200191505b509250505060405180910390fd5b5060008385039050809150509392505050565b828054600181600116156101000203166002900490600052602060002090601f016020900481019282601f1061256f57805160ff191683800117855561259d565b8280016001018555821561259d579182015b8281111561259c578251825591602001919060010190612581565b5b5090506125aa91906125ae565b5090565b6125d091905b808211156125cc5760008160009055506001016125b4565b5090565b9056fe4552433732313a207472616e7366657220746f206e6f6e20455243373231526563656976657220696d706c656d656e7465724552433732313a207472616e7366657220746f20746865207a65726f20616464726573734552433732313a206f70657261746f7220717565727920666f72206e6f6e6578697374656e7420746f6b656e4552433732313a20617070726f76652063616c6c6572206973206e6f74206f776e6572206e6f7220617070726f76656420666f7220616c6c4552433732313a2062616c616e636520717565727920666f7220746865207a65726f20616464726573734552433732313a206f776e657220717565727920666f72206e6f6e6578697374656e7420746f6b656e4552433732313a20617070726f76656420717565727920666f72206e6f6e6578697374656e7420746f6b656e4552433732314d657461646174613a2055524920736574206f66206e6f6e6578697374656e7420746f6b656e4552433732313a207472616e73666572206f6620746f6b656e2074686174206973206e6f74206f776e4552433732314d657461646174613a2055524920717565727920666f72206e6f6e6578697374656e7420746f6b656e4552433732313a20617070726f76616c20746f2063757272656e74206f776e65724552433732313a207472616e736665722063616c6c6572206973206e6f74206f776e6572206e6f7220617070726f766564a165627a7a72305820d187d6b0c2ad7795d405e06fb610227f7f4e317eb9e80af642b1b48cd9d2aef10029",
  "source": "// SPDX-License-Identifier: MIT\npragma solidity >=0.4.22 <0.9.0;\n\nimport \"openzeppelin-solidity/contracts/token/ERC721/ERC721Metadata.sol\";\n\n// Non-Fungible\ncontract PuzaNCoin is ERC721Metadata {\n    uint32 public Id; // last issued token\n    mapping(address => uint32) public MDTrack; // Id => Ethereum address\n\n    constructor()\n    ERC721Metadata(\"PuzaNCoin\", \"PUZAN\")\n    payable public {\n        Id = 0;\n    }\n\n    function createNFT_(address receiver, string calldata metadata) external returns (uint32) {\n        Id++;\n        _mint(receiver, Id);\n        _setTokenURI(Id, metadata);\n        MDTrack[receiver] = Id;\n        return Id;\n    }\n\n    function transferNFT_(address sender, address receiver, uint32 transId, string calldata metadata) external {\n        _transferFrom(sender, receiver, transId);\n        _setTokenURI(transId, metadata);\n        delete MDTrack[sender];\n        MDTrack[receiver] = Id;\n    }\n\n}",
  "sourcePath": "/home/dev/Projects/blockchain/substrate/token_wallet/contracts/PuzaNCoin.sol",
  "compiler": {
    "name": "solc",
    "version": "0.5.5+commit.47a71e8f.Emscripten.clang"
  },
  "schemaVersion": "3.3.3",
  "updatedAt": "2020-12-28T20:12:39.067Z",
  "networkType": "ethereum",
  "devdoc": {
    "methods": {
      "approve(address,uint256)": {
        "details": "Approves another address to transfer the given token ID The zero address indicates there is no approved address. There can only be one approved address per token at a given time. Can only be called by the token owner or an approved operator.",
        "params": {
          "to": "address to be approved for the given token ID",
          "tokenId": "uint256 ID of the token to be approved"
        }
      },
      "balanceOf(address)": {
        "details": "Gets the balance of the specified address.",
        "params": {
          "owner": "address to query the balance of"
        },
        "return": "uint256 representing the amount owned by the passed address"
      },
      "baseURI()": {
        "details": "Returns the base URI set via {_setBaseURI}. This will be automatically added as a preffix in {tokenURI} to each token's URI, when they are non-empty.    * _Available since v2.5.0._"
      },
      "getApproved(uint256)": {
        "details": "Gets the approved address for a token ID, or zero if no address set Reverts if the token ID does not exist.",
        "params": {
          "tokenId": "uint256 ID of the token to query the approval of"
        },
        "return": "address currently approved for the given token ID"
      },
      "isApprovedForAll(address,address)": {
        "details": "Tells whether an operator is approved by a given owner.",
        "params": {
          "operator": "operator address which you want to query the approval of",
          "owner": "owner address which you want to query the approval of"
        },
        "return": "bool whether the given operator is approved by the given owner"
      },
      "name()": {
        "details": "Gets the token name.",
        "return": "string representing the token name"
      },
      "ownerOf(uint256)": {
        "details": "Gets the owner of the specified token ID.",
        "params": {
          "tokenId": "uint256 ID of the token to query the owner of"
        },
        "return": "address currently marked as the owner of the given token ID"
      },
      "safeTransferFrom(address,address,uint256)": {
        "details": "Safely transfers the ownership of a given token ID to another address If the target address is a contract, it must implement {IERC721Receiver-onERC721Received}, which is called upon a safe transfer, and return the magic value `bytes4(keccak256(\"onERC721Received(address,address,uint256,bytes)\"))`; otherwise, the transfer is reverted. Requires the msg.sender to be the owner, approved, or operator",
        "params": {
          "from": "current owner of the token",
          "to": "address to receive the ownership of the given token ID",
          "tokenId": "uint256 ID of the token to be transferred"
        }
      },
      "safeTransferFrom(address,address,uint256,bytes)": {
        "details": "Safely transfers the ownership of a given token ID to another address If the target address is a contract, it must implement {IERC721Receiver-onERC721Received}, which is called upon a safe transfer, and return the magic value `bytes4(keccak256(\"onERC721Received(address,address,uint256,bytes)\"))`; otherwise, the transfer is reverted. Requires the _msgSender() to be the owner, approved, or operator",
        "params": {
          "_data": "bytes data to send along with a safe transfer check",
          "from": "current owner of the token",
          "to": "address to receive the ownership of the given token ID",
          "tokenId": "uint256 ID of the token to be transferred"
        }
      },
      "setApprovalForAll(address,bool)": {
        "details": "Sets or unsets the approval of a given operator An operator is allowed to transfer all tokens of the sender on their behalf.",
        "params": {
          "approved": "representing the status of the approval to be set",
          "to": "operator address to set the approval"
        }
      },
      "supportsInterface(bytes4)": {
        "details": "See {IERC165-supportsInterface}.     * Time complexity O(1), guaranteed to always use less than 30 000 gas."
      },
      "symbol()": {
        "details": "Gets the token symbol.",
        "return": "string representing the token symbol"
      },
      "tokenURI(uint256)": {
        "details": "Returns the URI for a given token ID. May return an empty string.     * If the token's URI is non-empty and a base URI was set (via {_setBaseURI}), it will be added to the token ID's URI as a prefix.     * Reverts if the token ID does not exist."
      },
      "transferFrom(address,address,uint256)": {
        "details": "Transfers the ownership of a given token ID to another address. Usage of this method is discouraged, use {safeTransferFrom} whenever possible. Requires the msg.sender to be the owner, approved, or operator.",
        "params": {
          "from": "current owner of the token",
          "to": "address to receive the ownership of the given token ID",
          "tokenId": "uint256 ID of the token to be transferred"
        }
      }
    }
  },
  "userdoc": {
    "methods": {}
  }
}